:020000040800F2
:10000000F809002069030008F1390008F3390008F5
:10001000F7390008FB390008FF390008000000002C
:10002000000000000000000000000000033A00088B
:10003000053A000800000000073A0008093A0008E5
:100040008303000883030008830300088303000878
:100050008303000883030008830300088303000868
:100060008303000883030008830300088303000858
:100070008303000883030008830300088303000848
:100080008303000883030008830300088303000838
:100090008303000883030008830300088303000828
:1000A0008303000883030008830300088303000818
:1000B0008303000883030008830300088303000808
:1000C00083030008830300088303000883030008F8
:1000D00083030008113A0008830300088303000823
:1000E00083030008830300088303000800F002F87C
:1000F00000F03AF80AA090E8000C82448344AAF188
:100100000107DA4501D100F02FF8AFF2090EBAE885
:100110000F0013F0010F18BFFB1A43F0010318473B
:100120000C5900002C590000103A24BF78C878C13F
:10013000FAD8520724BF30C830C144BF04680C60ED
:10014000704700000023002400250026103A28BF35
:1001500078C1FBD8520728BF30C148BF0B60704739
:100160001FB51FBD10B510BD04F094F91146FFF77F
:10017000F7FF03F034FB04F0B2F903B4FFF7F2FF2A
:1001800003BC04F0B3F900000CB50020019000900E
:100190006C48006840F480306A49086000BF6948D4
:1001A000006800F4003000900198401C0190009815
:1001B00018B90198B0F5A06FF1D16248006800F459
:1001C000003010B10120009001E000200090009864
:1001D000012843D15C48006840F010005A4908608B
:1001E0000846006820F0030008600846006840F0F8
:1001F0000200086053484068524948600846406819
:1002000048600846406840F480604860084640689E
:1002100020F47C1048600846406840F4E8104860CC
:100220000846006840F08070086000BF45480068DC
:1002300000F000700028F9D04248406820F0030028
:10024000404948600846406840F00200486000BFEE
:100250003C48406800F00C000828F9D10CBD10B5EE
:10026000FFF792FF10BD10B53648006840F001005E
:1002700034490860084640683449084031494860BC
:1002800008460068324908402E4908600846006860
:1002900020F4802008600846406820F4FE00486092
:1002A0004FF41F008860FFF7DAFF4FF00060294924
:1002B000086010BD10B5002100200022214B5B68B2
:1002C00003F00C0121B1042906D0082928D107E048
:1002D000214B224C236027E01F4B204C236023E05E
:1002E000184B5B6803F47010164B5B6803F48032A4
:1002F000022303EB904022B9194B4343174C236070
:100300000DE0104B5B6803F4003323B1144B4343FF
:10031000124C236003E0104B4343104C236003E076
:100320000D4B0E4C236000BF00BF064B5B68C3F350
:1003300003130C4CE15C094B1B68CB40074C23605A
:1003400010BD000000100240002002400000FFF835
:10035000FFFFF6FE08ED00E000127A00000000202A
:1003600000093D0004000020094880470948004773
:10037000FEE7FEE7FEE7FEE7FEE7FEE7FEE7FEE755
:10038000FEE7FEE704480549054A064B70470000B2
:1003900067020008ED000008F8030020F8090020BB
:1003A000F8050020F805002031490143314A116069
:1003B000704770B5002100230F22C47804B32D4C80
:1003C000246804F4E064C4F5E064210AC1F1040384
:1003D000CA40447804FA03F18478144021430901A7
:1003E000254C0678A155047804F01F050124AC4083
:1003F00005786D11AD0005F1E025C5F8004109E073
:10040000047804F01F050124AC401C4D06787611D9
:1004100045F8264070BD1A4A0A400243154B1B1F7F
:100420001A60704739B1134A121D12680243114B0A
:100430001B1D1A6006E00F4A121D126882430D4B05
:100440001B1D1A607047042808D14FF0E02109698C
:1004500041F004014FF0E022116107E04FF0E0218C
:10046000096921F004014FF0E0221161704700009A
:100470000000FA050CED00E000E400E080E100E09F
:1004800080FFFF1F10B50446CC48844208D10121EB
:10049000042000F02DFB0021042000F029FB46E0A1
:1004A000C748844208D10121082000F021FB002127
:1004B000082000F01DFB3AE0C248844208D1012127
:1004C000102000F015FB0021102000F011FB2EE0A1
:1004D000BD48844208D10121202000F009FB002101
:1004E000202000F005FB22E0B848844208D1012119
:1004F000402000F0FDFA0021402000F0F9FA16E05B
:10050000B348844208D10121802000F0F1FA002193
:10051000802000F0EDFA0AE0AE48844207D10121C4
:10052000801500F0E5FA0021A01500F0E1FA10BDF9
:1005300010B50121084600F0DBFA0021012000F08F
:10054000D7FA10BD2DE9F041024600250026002013
:1005500000230024002791F803C00CF00F0591F848
:1005600003C00CF0100CBCF1000F03D091F802C0D6
:100570004CEA050591F800C0BCF1000F31D01468B9
:1005800000202BE04FF0010C0CFA00F3B1F800C092
:100590000CEA03069E4220D183004FF00F0C0CFAA8
:1005A00003F7BC4305FA03FC4CEA040491F803C0CA
:1005B000BCF1280F06D14FF0010C0CFA00FCC2F878
:1005C00014C00AE091F803C0BCF1480F05D14FF008
:1005D000010C0CFA00FCC2F810C0401C0828D1D352
:1005E0001460B1F800C0BCF1FF0F34DD5468002086
:1005F0002EE000F1080C4FF0010808FA0CF3B1F8F6
:1006000000C00CEA03069E4221D183004FF00F0C7C
:100610000CFA03F7BC4305FA03FC4CEA040491F816
:1006200003C0BCF1280F05D100F1080C08FA0CF842
:10063000C2F8148091F803C0BCF1480F07D100F153
:10064000080C4FF0010808FA0CF8C2F81080401CA2
:100650000828CED35460BDE8F0814FF6FF710180C9
:10066000022181700421C170704702460020936806
:100670000B400BB1012000E0002070470146886864
:1006800080B2704702460020D3680B400BB10120B6
:1006900000E0002070470146C86880B270470161E1
:1006A0007047416170470AB1016100E041617047E4
:1006B000C16070474FF480320A4382618161826178
:1006C00082698269704702460020434B18684FF6E2
:1006D0008073184040EA021008433F4B186070478F
:1006E0003E49C8617047F0B50A4600230024002146
:1006F000002500F00046B6F1004F02D1364EF169F8
:1007000001E0354E7168C0F3034583B200F4401632
:10071000B6F5401F08D121F070612F4E766826F0A3
:1007200070662D4F7E6012E000F48016B6F5801FD3
:1007300006D1032606FA05F4A14341F0706106E0F4
:10074000460D360103FA06F6B14341F0706122B15D
:10075000460D360103FA06F6314300F00046B6F1C5
:10076000004F02D11C4EF16101E01B4E7160F0BDE3
:1007700030B500228B071C0F0F2303FA04F2164B2F
:1007800008338C1053F824309343134C08348D10E5
:1007900044F8253023468C1053F824308C07240F5E
:1007A00000FA04F423430C4C08348D1044F825302F
:1007B00030BD0A49DC310860704700000008014084
:1007C000000C0140001001400014014000180140DD
:1007D000001C0140002001400000014000002042B8
:1007E000DF48006840F00100DD49086008464068C5
:1007F000DC490840DA49486008460068DA490840A0
:10080000D74908600846006820F480200860084640
:10081000406820F4FE0048604FF41F008860704775
:10082000CF49096821F48031CD4A11601146096829
:1008300021F480211160B0F5803F03D0B0F5802F06
:100840000ED106E0C649096841F48031C44A1160FE
:1008500007E0C349096841F4A021C14A116000E0E2
:1008600000BF00BF704710B50146002200230020E2
:100870004A11012A02D1BA4C236806E0022A02D1A9
:10088000B74C236A01E0B64C636A01F01F020124F1
:1008900094401C400CB1012000E0002010BD38B590
:1008A000002000900024002500BF3120FFF7DBFF6F
:1008B00005460098401C00900098B0F5A06F01D04C
:1008C000002DF2D03120FFF7CEFF08B1012400E067
:1008D0000024204638BD01460020A14A106820F0BF
:1008E000F80040EAC10010607047A04908607047F6
:1008F000024600209A4B586820F47C1042EA01031B
:100900001843974B586070479849086670470146EE
:100910000020934A506820F003000843506070475D
:100920008F48406800F00C007047014600208C4A58
:10093000506820F0F00008435060704701460020E6
:10094000874A506820F4E0600843506070470146D1
:100950000020834A506820F4605040EAC100506093
:10096000704729B17E4A527A02437D4B5A7204E0A5
:100970007B4A527A82437A4B5A7270477B49D8310C
:100980000860704701460020754A506820F44040D6
:100990000843506070470021714A20321170704A3C
:1009A00082F82010012802D004280AD104E0012195
:1009B0006B4A2032117005E00521694A203211701E
:1009C00000E000BF00BF7047694908607047644994
:1009D000096A0143624A11627047654944390860F7
:1009E000704730B500210022002400235C4D6D6863
:1009F00005F00C0121B1042905D0082923D105E017
:100A00005C4D056022E05B4D05601FE0544D6D6854
:100A100005F47012524D6D6805F48034022505EB23
:100A200092421CB9544D554305600BE04C4D6D6826
:100A300005F400351DB1504D5543056002E04D4DA4
:100A40005543056002E04B4D056000BF00BF444DBB
:100A50006D6805F0F0010909484D6B5C0568DD40E3
:100A600045603F4D6D6805F4E061090A434D6B5CDC
:100A70004568DD4085603A4D6D6805F46051C90AEE
:100A80003E4D6B5C4568DD40C560354D6D6805F4D5
:100A90004041890B3A4D6B5CC568B5FBF3F50561C8
:100AA00030BD29B12E4A526902432D4B5A6104E0F0
:100AB0002B4A526982432A4B5A61704729B1284A0E
:100AC00092690243264B9A6104E0254A9269824367
:100AD000234B9A61704729B1214AD2690243204BC6
:100AE000DA6104E01E4AD26982431D4BDA61704725
:100AF00029B11B4AD2680243194BDA6004E0184A54
:100B0000D2688243164BDA60704729B1144A1269E1
:100B10000243134B1A6104E0114A12698243104BDD
:100B20001A61704712494039086070470F49C8641C
:100B300070470B49C87170470948406A40F080709F
:100B400007494862704701460020054A92680A40FA
:100B50000AB1012000E00020704701498872704707
:100B6000001002400000FFF8FFFFF6FE00004242C6
:100B70008004424200127A0000093D001400002067
:100B80002400002010B50446FE48844208D101210B
:100B9000C014FFF7ADFF0021E014FFF7A9FFC4E088
:100BA000B4F1804F08D101210846FFF7AEFF0021C4
:100BB0000120FFF7AAFFB8E0F348844208D10121E1
:100BC0000220FFF7A2FF00210220FFF79EFFACE00A
:100BD000EE48844208D101210420FFF796FF00214E
:100BE0000420FFF792FFA0E0E948844208D10121E8
:100BF0000820FFF78AFF00210820FFF786FF94E016
:100C0000E448844208D101211020FFF77EFF002133
:100C10001020FFF77AFF88E0DF48844208D10121E5
:100C20002020FFF772FF00212020FFF76EFF7CE0FD
:100C3000DA48844208D101214014FFF759FF00210E
:100C40006014FFF755FF70E0D548844209D10121B7
:100C5000C804FFF74DFF00214FF40020FFF748FFC5
:100C600063E0D048844209D101210805FFF740FF25
:100C700000214FF48010FFF73BFF56E0CA48844242
:100C800009D101214805FFF733FF00214FF400107F
:100C9000FFF72EFF49E0C548844208D101214020DA
:100CA000FFF733FF00214020FFF72FFF3DE0C04852
:100CB000844208D101218020FFF727FF00218020F6
:100CC000FFF723FF31E0BB48844208D101218015A2
:100CD000FFF71BFF0021A015FFF717FF25E0B6481F
:100CE000844209D101210804FFF702FF00214FF4DB
:100CF0008030FFF7FDFE18E0B048844209D10121A1
:100D00004804FFF7F5FE00214FF40030FFF7F0FE36
:100D10000BE0AB48844208D101218804FFF7E8FECC
:100D200000214FF48020FFF7E3FE10BD002202886F
:100D3000944B98420ED0994B98420BD0B0F1804F13
:100D400008D0914B984205D0904B984202D0904BDE
:100D5000984204D14FF68F731A404B881A438D4B3B
:100D6000984207D08C4B984204D04FF6FF431A406C
:100D7000CB881A4302808B8883850B880385814B3F
:100D800098420BD0854B984208D08B4B984205D0A7
:100D90008A4B984202D08A4B984201D10B7A038643
:100DA00001238382704770B5002400220023058C44
:100DB0004FF6FE7635400584028C8388048B4FF60F
:100DC0008F752C40B51E2C400D882C43751E2A4073
:100DD0000D892A434D882A436A4DA8420BD06F4D96
:100DE000A84208D0744DA84205D0744DA84202D044
:100DF000734DA84213D14FF6F7752A404D892A4307
:100E00004FF6FB752A408D882A434FF6FF652B402D
:100E10004FF6FF552B408D892B43CD892B43838083
:100E20000483CD888586028470BD70B500240022BD
:100E30000023058C4FF6EF7635400584028C8388BD
:100E4000048B48F6FF752C404FF6FF452C400D886B
:100E50004FF6FF7606EA05252C434FF6DF752A404C
:100E60000D8906EA05152A434D8806EA05152A4329
:100E7000444DA84202D0494DA8421DD14FF67F757E
:100E80002A404D894FF6FF7606EA05152A434FF6AC
:100E9000BF752A408D8806EA05152A434FF6FF35AF
:100EA0002B404FF2FF752B408D8906EA85052B43B9
:100EB000CD8906EA85052B4383800483CD88058789
:100EC000028470BD70B5002400220023058C4FF60B
:100ED000FF6635400584028C8388848B4FF68F75BE
:100EE0002C404FF6FC752C400D882C434FF6FF55D7
:100EF0002A400D894FF6FF7606EA05252A434D88DC
:100F000006EA05252A431F4DA84202D0234DA842D8
:100F10001DD14FF2FF752A404D894FF6FF7606EA44
:100F200005252A434FF6FF352A408D8806EA052518
:100F30002A434EF6FF752B404DF6FF752B408D89E9
:100F400006EA05152B43CD8906EA05152B43838058
:100F50008483CD888587028470BD70B5002200230C
:100F60000024058C4EF6FF7635400584038C84887A
:100F7000828B48F6FF752A404FF6FF452A400D88C0
:100F800020E00000002C0140000400400008004068
:100F9000000C0040001000400014004000340140EC
:100FA000004C014000500140005401400018004036
:100FB000001C00400020004000400140004401406F
:100FC000004801404FF6FF7606EA05252A434DF614
:100FD000FF752B400D8906EA05352B434D8806EA3F
:100FE00005352B43FA4DA84202D0FA4DA84208D14C
:100FF0004BF6FF752C408D894FF6FF7606EA851576
:101000002C4384808283CD88A0F84050038470BD37
:10101000828B4FF2FF331A408283828B4FF6FF732D
:1010200003EA01231A4382837047F0B50C46154644
:10103000002200210026078C4EF6FF7C07EA0C07F1
:101040000784828B018C4FF6FF7707EA043640F65F
:10105000FF473A404FF6FF7707EA05273A434FF636
:10106000FF7707EA03373A43D94FB8420ED0D94F3A
:10107000B8420BD0B0F1804F08D0D74FB84205D05E
:10108000D64FB84202D0D64FB84206D14DF6FF77C0
:10109000394046F48057394305E047F6FF57394059
:1010A00044F48057394382830184F0BD828B4FF62C
:1010B000F3731A408283828B0A4382837047F0B5B0
:1010C0000C461546002200210026078C4FF6FF6CC7
:1010D00007EA0C070784828B018C4FF6FF7707EA3B
:1010E00004264FF60C773A404FF6FF7707EA0317CE
:1010F0002F433A43B64FB8420ED0B64FB8420BD04A
:10110000B0F1804F08D0B44FB84205D0B34FB842C9
:1011100002D0B34FB84206D14FF6FF57394046F4DC
:101120008077394305E04FF2FF57394044F4807728
:10113000394382830184F0BD028B4FF2FF331A40A2
:101140000283028B4FF6FF7303EA01231A430283E3
:101150007047F0B50C461546002200210026078C8A
:101160004FF6EF7C07EA0C070784028B018C4FF6E1
:10117000FF7707EA041640F6FF473A404FF6FF773D
:1011800007EA03373A434FF6FF7707EA05273A4362
:101190008F4FB8420ED08F4FB8420BD0B0F1804F76
:1011A00008D08D4FB84205D08C4FB84202D08C4F3A
:1011B000B84206D14FF6DF77394046F01007394381
:1011C00005E04FF65F77394044F01007394302835A
:1011D0000184F0BD028B4FF6F3731A400283028B39
:1011E0000A4302837047F0B50C46154600220021E1
:1011F000068C4FF6FE773E400684028B018C4FF63C
:101200000C7632407E1C06EA03162E433243704EA3
:10121000B0420ED06F4EB0420BD0B0F1804F08D02C
:101220006D4EB04205D06D4EB04202D06C4EB04211
:1012300006D14FF6FD76314044F00106314305E01A
:101240004FF6F576314044F00106314302830184C4
:10125000F0BD70B505460C465D4885420ED05D4830
:1012600085420BD0B5F1804F08D05B48854205D050
:101270005A48854202D05A48854200D100E000BF5A
:10128000208850B92389A28861882846FFF7ABFFE0
:10129000E1882846FFF79EFF25E0208804280AD130
:1012A0002389A28861882846FFF753FFE1882846F2
:1012B000FFF742FF17E0208808280AD12389A28877
:1012C00061882846FFF7FBFEE1882846FFF7EEFE1F
:1012D00009E02389A28861882846FFF7A6FEE188F5
:1012E0002846FFF795FE70BD2DE9F04105460C46F6
:1012F00000260127608808B9022600E00026A088A1
:10130000012801D1022700E001272088A0B9238904
:10131000A28861882846FFF766FFE1882846FFF724
:1013200059FF23893A4631462846FFF712FFE188E4
:101330002846FFF701FF13E02389A2886188284629
:10134000FFF707FFE1882846FFF7F6FE23893A46B4
:1013500031462846FFF747FFE1882846FFF73AFF66
:10136000BDE8F0810A884B881A438B881A43CB88E2
:101370001A430B891A434B891A438B891A43A0F8E5
:10138000442070474FF6FF71818000210180C180A9
:101390004180017270470021018041808180C180BD
:1013A000018141818181C18170470021018041809B
:1013B000012181800021C1800181704700210180CD
:1013C00041808180C180018141818181704700001D
:1013D000002C01400034014000040040000800409F
:1013E000000C004021B1028842F00102028004E0BA
:1013F00002884FF6FE731A400280704731B1B0F890
:10140000442042F40042A0F8442005E0B0F8442013
:10141000C2F30E02A0F8442070471AB183890B432F
:10142000838102E083898B43838170478182704787
:1014300041EA0203A0F8483070471AB183890B4390
:10144000838102E083898B438381704701894FF652
:10145000F8721140018170470A46002101894FF658
:101460008F73194011430181704730B504460D4612
:1014700029462046FFF7F0FF208940F00700208131
:1014800030BD2DE9F04104460D4616461F46602D3D
:1014900006D13B46012231462046FFF75AFE05E0C1
:1014A0003B46012231462046FFF79DFE2946204655
:1014B000FFF7D2FF208940F007002081BDE8F081CE
:1014C00030B50C4600210189C9B24FF6FF7505EA17
:1014D0000325154325432943018130BD2DE9F04102
:1014E00005460E4617469846002443463A4631467E
:1014F0002846FFF7E5FF2C894FF6F870044044F0CA
:1015000007044FF68F70044044F070042C81BDE84E
:10151000F081F0B504460D4616461F463B4632465E
:1015200029462046FFF7CCFF208940F480402081E7
:10153000F0BD0185828270470A46002101884FF67E
:101540008F731940114301807047F0B50C46154662
:101550001E460021002200230189028B038C4FF6D6
:10156000F877394021434FF6FC473A4040F20117E3
:101570003A434FF6DD773B404FF6FF7707EA061711
:101580002F433B43018102830384F0BD0A460021BF
:10159000018B4FF68F7319401143018370470A4640
:1015A0000021018B48F6FF7319404FF6FF7303EAE1
:1015B00002231943018370470A460021818B4FF6AD
:1015C0008F7319401143818370470A460021818B34
:1015D00048F6FF7319404FF6FF7303EA02231943DD
:1015E0008183704721B1028842F08002028004E0CA
:1015F00002884FF67F731A400280704721B18288BB
:1016000042F00402828004E082884FF6FB731A40A5
:101610008280704721B1828842F00802828004E013
:1016200082884FF6F7731A408280704721B1828812
:1016300042F00102828004E082884FF6FE731A4075
:10164000828070470A460021018B4FF6F7731940DC
:101650001143018370470A460021018B4FF2FF734B
:1016600019404FF6FF7303EA0223194301837047C1
:101670000A460021818B4FF6F7731940114381838D
:1016800070470A460021818B4FF2FF7319404FF6D5
:10169000FF7303EA02231943818370470A4600213E
:1016A000018B4FF6FB7319401143018370470A46C3
:1016B0000021018B4FF6FF3319404FF6FF7303EA09
:1016C00002231943018370470A460021818B4FF69C
:1016D000FB7319401143818370470A460021818BB7
:1016E0004FF6FF3319404FF6FF7303EA0223194305
:1016F000818370470A460021018B4FF67F731940A2
:101700001143018370470A460021018BC1F30E018A
:101710004FF6FF7303EA02231943018370470A4619
:101720000021818B4FF67F731940114381837047ED
:101730000A460021818BC1F30E014FF6FF7303EAC5
:1017400002231943818370470A460021018C4FF61A
:10175000FD7319401143018470470A460021018C32
:101760004FF6F77319401143018470470A46002170
:10177000018C4FF6DF7319404FF6FF7303EA021333
:101780001943018470470A460021018C4FF67F738C
:1017900019404FF6FF7303EA02131943018470479F
:1017A0000A460021018C4FF6FF5319404FF6FF7394
:1017B00003EA02231943018470470A460021018C81
:1017C0004FF2FF7319404FF6FF7303EA02231943E8
:1017D000018470470A460021018C4DF6FF731940C1
:1017E0004FF6FF7303EA023319430184704730B5A3
:1017F000002301248C40A3B2048C9C430484048CF9
:1018000002FA01F5ADB22C43048430BD30B500239B
:1018100004248C40A3B2048C9C430484048C02FAFC
:1018200001F5ADB22C43048430BD70B503460020F1
:1018300000241846183001258D40ACB21D8CA543FC
:101840001D8409B1082909D100EB6100056825F064
:10185000700505600568154305600EE00D1FC5F3B2
:101860004E052844056825F4E045056005684FF6F7
:10187000FF7606EA02263543056070BD21B1028875
:1018800042F00202028004E002884FF6FD731A4023
:101890000280704721B1028842F00402028004E015
:1018A00002884FF6FB731A400280704721B182888C
:1018B00042F08002828004E082884FF67F731A40F3
:1018C0008280704702884FF6F7731A4002800288C0
:1018D0000A430280704782884FF68F731A408280D5
:1018E00082880A438280704702894FF6F8731A4053
:1018F000028102890A430281704702894FF67F7391
:101900001A40028102890A4302817047818470472C
:10191000818570478186704701877047818770474E
:10192000A0F84010704702884FF6FF431A4002802B
:1019300002880A43028070470146888E704701463C
:10194000088F70470146888F70470146B1F8400004
:1019500070470146888C70470146088D70470246E3
:101960000020138A0B400BB1012000E000207047DB
:10197000CA430282704730B502460020002300248B
:10198000158A05EA0103958905EA010413B10CB132
:10199000012000E0002030BDCA43028270470000F1
:1019A00010B50446FB48844209D101218803FFF7A2
:1019B0009FF800214FF48040FFF79AF832E0F64894
:1019C000844209D101214804FFF79FF800214FF418
:1019D0000030FFF79AF825E0F048844209D1012150
:1019E0008804FFF792F800214FF48020FFF78DF86C
:1019F00018E0EB48844209D10121C804FFF785F8BB
:101A000000214FF40020FFF780F80BE0E548844206
:101A100008D101210805FFF778F800214FF4801064
:101A2000FFF773F810BD2DE9F04786B005460E4666
:101A30000024A24600BFA1460027B08900B100BF24
:101A40002F462C8A4CF6FF700440F08804432C8209
:101A5000AC894EF6F3100440B0883189084371898F
:101A600008430443AC81AC8A4FF6FF400440B08980
:101A70000443AC8201A8FEF7B4FFC648874202D1F6
:101A8000DDF810A001E0DDF80CA0A88900F400400A
:101A900040B10AEBCA0000EB0A1031684900B0FB04
:101AA000F1F807E00AEBCA0000EB0A103168890080
:101AB000B0FBF1F86420B8FBF0F0040120096421C8
:101AC00001FB1089A88900F4004040B1322000EBEE
:101AD000C900B0FBF1F000F00700044308E0322039
:101AE00000EB09106421B0FBF1F000F00F0004439B
:101AF0002C8106B0BDE8F0874FF41651016000213B
:101B00008180C18001810C21418100218181704748
:101B100010B502460020108A4FF2FF0318400B88D0
:101B20004C8823438C882343CC882343184310825A
:101B300010BD0021018041808180C180704721B1AA
:101B4000828942F40052828104E082894DF6FF735B
:101B50001A4082817047F0B5034600240026002514
:101B6000002040F66A17B94200D100BF1846C1F301
:101B7000421401F01F06012707FA06F5012C01D1D6
:101B80000C3004E0022C01D1103000E014301AB106
:101B900007682F43076002E00768AF430760F0BDA6
:101BA0001AB1838A0B43838202E0838A8B43838248
:101BB0007047028A4FF6F0731A400282028A0A4383
:101BC0000282704782894FF2FF731A4082818289B4
:101BD0000A438281704721B1828942F002028281E8
:101BE00004E082894FF6FD731A4082817047028AB1
:101BF0004FF6DF731A400282028A0A43028270475C
:101C000021B1028A42F48042028204E0028A4BF649
:101C1000FF731A4002827047C1F308028280704746
:101C200001468888C0F308007047818941F00101AE
:101C300081817047028BD2B20283028B42EA012279
:101C400002837047028B02F47F420283028B0A43B5
:101C50000283704721B1828A42F02002828204E02E
:101C6000828A4FF6DF731A408282704721B1828ADE
:101C700042F01002828204E0828A4FF6EF731A402B
:101C80008282704721B1828A42F00802828204E097
:101C9000828A4FF6F7731A408282704721B1828997
:101CA00042F40042828103E08289C2F30E02828103
:101CB000704721B1828A42F40062828204E0828A03
:101CC0004FF2FF731A4082827047828A4FF6FB738D
:101CD0001A408282828A0A438282704721B1828AB4
:101CE00042F00202828204E0828A4FF6FD731A40BB
:101CF0008282704702460020B1F5007F00D100BF0C
:101D000013880B400BB1012000E00020704701F464
:101D10000072B2F5007F00D100BFCA430280704755
:101D200070B50246002400230025002040F66A1604
:101D3000B14200D100BFC1F3421501F01F030126DB
:101D400006FA03F3012D02D19689334006E0022DF5
:101D500002D1168A334001E0968A33400C120126E4
:101D600006FA04F41688344013B10CB1012000E0E7
:101D7000002070BD10B50022002340F66A14A14275
:101D800000D100BF0A1201249440A3B2DC430480B6
:101D900010BD0000003801400044004000480040F1
:101DA000004C00400050004008B501210820FEF71B
:101DB00085FE8020ADF8000003208DF8020014207D
:101DC0008DF803006946CB48FEF7BCFB4020ADF818
:101DD000000003208DF8020014208DF803006946EE
:101DE000C448FEF7AFFB08BD0A2000E0401E0028F3
:101DF000FCDA704710B54020BE49103108608020E1
:101E00000860FFF7F1FFBB480830006808B90120FF
:101E100000E0002000F0400008B1002010BD40208C
:101E2000B44914310860FFF7DFFFB248083000689A
:101E300000F0400008B10020F0E74020AD49143127
:101E40000860FFF7D1FF0120E8E710B58020A9491D
:101E500014310860FFF7C8FF4020A649143108601C
:101E6000FFF7C2FF8020A34910310860FFF7BCFFD5
:101E70004020A04910310860FFF7B6FF10BD10B533
:101E800080209C4914310860FFF7AEFF402099493B
:101E900014310860FFF7A8FF8020964910310860D0
:101EA000FFF7A2FF8020934914310860FFF79CFFE1
:101EB00010BD10B580208F4914310860FFF794FFE2
:101EC00040208C4910310860FFF78EFF802089493F
:101ED00010310860FFF788FF8020864914310860C0
:101EE000FFF782FF10BD10B58020824914310860D1
:101EF000FFF77AFF40207F4910310860FFF774FF39
:101F000080207C4910310860FFF76EFF7948083067
:101F1000006800F0400038B1802076491431086034
:101F2000FFF762FF002010BD802072491431086065
:101F3000FFF75AFF0120F6E770B50446002500BF01
:101F40001DE080206B4914310860FFF74DFF04F05D
:101F5000800020B1402067491031086003E0402034
:101F60006449143108606006040EFFF73DFF8020CD
:101F7000604910310860FFF737FF681CC5B2082DB3
:101F8000DFDB80205B491431086070BD70B500252F
:101F90000024402057491031086000BF17E0600658
:101FA000040E8020534914310860FFF71DFF802084
:101FB000504910310860FFF717FF4E48083000689D
:101FC00000F0400008B144F00104681CC5B2082DBF
:101FD000E5DB8020474914310860204670BD70B5AC
:101FE00006460C461546FFF705FF08B9002070BDF0
:101FF0003046FFF7A1FFFFF776FF18B9FFF725FF7F
:102000000020F4E72046FFF797FFFFF76CFF284614
:10201000FFF792FFFFF767FFFFF717FF0120E6E7E3
:1020200070B505460E4614460CB9002070BDFFF78A
:10203000E1FE08B90020F9E72846FFF77DFFFFF72A
:1020400052FF18B9FFF701FF0020EFE73046FFF716
:1020500073FFFFF748FFFFF7CDFE691CC8B2FFF71B
:102060006BFFFFF740FFFFF791FF2070FFF721FFA5
:10207000FFF7EBFE0120D9E72DE9F041074688463E
:1020800016461C46012C02DA0020BDE8F081FFF75D
:10209000B1FE08B90020F8E73846FFF74DFFFFF71B
:1020A00022FF18B9FFF7D1FE0020EEE74046FFF708
:1020B00043FFFFF718FFFFF79DFE791CC8B2FFF73B
:1020C0003BFFFFF710FF002506E0FFF75FFF7055AD
:1020D000FFF7D5FE681CC5B2601EA842F5DCFFF70D
:1020E00055FF611E7054FFF7E4FEFFF7AEFE0120BE
:1020F000CBE70000000C014010B50021002200BF1A
:1021000006E0CD4A00BF1300A2F10102FBD1491C39
:102110008142F6D310BD70B504460D462A462146CD
:10212000D020FFF77DFF70BD70B504460D462A46EE
:102130002146D020FFF753FF70BD10B580216B20E2
:10214000FFF7F2FF10BD70B504464FF47A7090FBB4
:10215000F4F0401EC5B22A461921D020FFF73FFFF8
:1021600070BD10B5044621466B20FFF7DDFF10BDA2
:1021700010B5044621461B20FFF7D6FF10BD10B551
:10218000044621461C20FFF7CFFF10BD10B50446C2
:1021900021461A20FFF7C8FF10BD10B5044624B130
:1021A00002213720FFF7C0FF03E000213720FFF7AF
:1021B000BBFF10BD012070477CB5054601246A466F
:1021C0003C21D020FFF72CFF04400DF101023B2100
:1021D000D020FFF725FF04400DF102023E21D02060
:1021E000FFF71EFF04400DF103023D21D020FFF751
:1021F00017FF044001AA4021D020FFF711FF04403F
:102200000DF105023F21D020FFF70AFF0440BCB1C9
:102210009DF800009DF8011040EA012000B22880DE
:102220009DF802009DF8031040EA012000B268808A
:102230009DF804009DF8051040EA012000B2A88036
:102240007CBD7CB5054601246A464421D020FFF7B9
:10225000E7FE04400DF101024321D020FFF7E0FE2C
:1022600004400DF102024621D020FFF7D9FE0440C0
:102270000DF103024521D020FFF7D2FE044001AA50
:102280004821D020FFF7CCFE04400DF10502472184
:10229000D020FFF7C5FE0440BCB19DF800009DF8BA
:1022A000011040EA012000B228809DF802009DF84C
:1022B000031040EA012000B268809DF804009DF8F8
:1022C000051040EA012000B2A8807CBD70B504462C
:1022D0000D46B5F9000003F0B3F80646574903F080
:1022E0000FF92060B5F9020003F0AAF80646534939
:1022F00003F006F96060B5F9040003F0A1F80646A2
:102300004E4903F0FDF8A06070BD7CB504466846F8
:10231000FFF752FFBDF9000003F092F80546474968
:1023200003F0EEF82060BDF9020003F089F80546DD
:10233000424903F0E5F86060BDF9040003F080F85D
:1023400005463E4903F0DCF8A0607CBD10B50446AC
:102350003B49204603F0D4F810BD7CB504466846DE
:10236000FFF76FFFBDF9000003F06AF80646354934
:1023700003F0C6F80546FFF7E9FF2060BDF902004B
:1023800003F05EF806462F4903F0BAF80546FFF75A
:10239000DDFF6060BDF9040003F052F806462949EC
:1023A00003F0AEF80546FFF7D1FFA0607CBD2DE934
:1023B000F04104460D46B5F9000003F041F8074628
:1023C000204903F09DF80646FFF7C0FF2060B5F9ED
:1023D000020003F035F807461A4903F091F8064663
:1023E000FFF7B4FF6060B5F9040003F029F8074671
:1023F000144903F085F80646FFF7A8FFA060BDE882
:10240000F08110B5FFF799FE0520FFF775FE4FF438
:102410007A70FFF798FE0320FFF7A3FE0020FFF776
:10242000BCFE0320FFF7B2FE1820FFF7A1FE10202C
:10243000FFF7A5FE10BD000040190100D5FF7F3950
:1024400034FA8E3C8DC1793D70B5DDE904450160FB
:10245000426083600461C560012680F8286070BD19
:102460002DE9F04104460D4616462946206803F042
:1024700047F8606194F82800D8B12946606803F0F5
:102480003FF88046314603F03BF80746A16902F069
:1024900031FEA061E168A06903F0FEF802D2E068B5
:1024A000A06106E02169A06902F0F6FF01D220696F
:1024B000A0612846216A03F0B3F98046A16803F0C1
:1024C0001FF80746314602F089FEE0612562D4E933
:1024D000050102F00FFE0746E16902F00BFE6062A3
:1024E000606ABDE8F08110B50446A169606A03F036
:1024F00097F960620020A06110BD002180F82810CB
:102500007047012180F82810704700002DE9F0473E
:1025100004464FF07C51204602F0F2FF81462546EA
:102520002E46FE48A0EB660635462946484602F090
:10253000E7FF8246294602F0E3FF80464FF07F51D5
:1025400003F0DBF80746294602F0DAFF0546284685
:10255000BDE8F0872DE9FF4F8BB014461D460021E2
:10256000284602F0FDFE09D10021189802F0F8FE7D
:1025700004D10021199802F0F3FE7DD01999084684
:1025800002F0BEFF05901899084602F0B9FF2946EF
:102590000390284602F0B4FF0290039902F0AAFDCE
:1025A0000490059902F0A6FD0690FFF7AFFF814663
:1025B0004946284602F0A4FF05464946189802F00D
:1025C0009FFF18904946199802F09AFF1990D44835
:1025D0000168D448006802F093FF0690D248016871
:1025E000D248006802F08CFF0590069903F018F9B4
:1025F0008246CD480168CA48006802F081FF069013
:10260000CA480168C748006802F07AFF0590069939
:1026100002F070FD0A90C4480168006802F070FF83
:102620000690C0480168006802F06AFF4FF07C51D4
:10263000049003F0F5F80590069902F05BFD8346DF
:102640000A99199802F05CFF59460690189802F012
:1026500057FF0590069903F0E3F80990594628467C
:1026600002F04EFF51460690199802F049FF05907E
:10267000069903F0D5F800E07FE0089051461898DD
:1026800002F03EFF069028460A9902F039FF0590B5
:10269000069903F0C5F807900021A548006802F0EC
:1026A000FBFF45D2A2480999006802F029FFA14921
:1026B000059002F025FF06909F480168069802F0F9
:1026C00019FD9D4908609A480899006802F018FFB2
:1026D0009849059002F014FF069098480168069802
:1026E00002F008FD9549086091480799006802F0DA
:1026F00007FF9049059002F003FF0690904801689B
:10270000069802F0F7FC8E4908608B4801680B9828
:1027100002F0F0FC0B90894801680C9802F0EAFC8A
:102720000C9087480168204602F0E4FC044606E06D
:10273000002081490860814908608149086081481A
:102740000999006802F0DCFE06900B9902F0D2FCB9
:102750000B907C480899006802F0D2FE06900C9914
:1027600002F0C8FC0C9077480799006802F0C8FE98
:102770002146069002F0BEFC044673490B9802F015
:10278000BFFE0B9070490C9802F0BAFE0C906E4997
:10279000204602F0B5FE04466248066863480768B2
:1027A0005F48D0F8008021465F48006802F0A8FE2C
:1027B000059040460C9902F0A3FE039087F000407C
:1027C00001900B9902F09CFE0290039903F028F807
:1027D0000490059903F024F8069052480168069881
:1027E00002F088FC4F4908604F480C99006802F0DD
:1027F00087FE21460590404602F082FE3146039056
:102800000B9802F07DFE0290039902F073FC049095
:10281000059903F005F8069044480168069802F00F
:1028200069FC42490860404801680B9802F068FE64
:1028300021460590384602F063FE039030460C991D
:1028400002F05EFE0290039902F0EAFF04900599FF
:1028500002F050FC069032480168069802F04AFCEB
:102860002F49086041460B9802F04AFE0590384611
:102870000C9902F045FE21460390304602F040FEDE
:102880000290039902F036FC0490059902F0C8FF0B
:10289000069025480168069802F02CFC2249086041
:1028A00008460168006802F02BFE05901C4801688C
:1028B000006802F025FE03901C480168006802F0E1
:1028C0001FFE019017480168006802F019FE009091
:1028D000019902F00FFC0290039902F00BFC0490A6
:1028E000059902F007FC0690FFF710FE8146494665
:1028F0000C48006802F004FE0A49086049460B488B
:10290000006802F0FDFD0949086049460448006876
:1029100002F0F6FD02490860494617E0DF59375FCB
:1029200038000020300000203C000020340000204F
:102930002C0000200AD7A33B4000002044000020C8
:1029400048000020280000200AD7233BFE480068EA
:1029500002F0D6FDFC4908600FB0BDE8F08F0FB55E
:10296000A3B000212A9802F0FBFC13D100212B9880
:1029700002F0F6FC0ED100212C9802F0F1FC09D1F6
:10298000DDE92801CDE9000123A80FC8FFF7E2FD2A
:1029900027B000BD0021269802F0E2FC09D10021F9
:1029A000289802F0DDFC04D10021299802F0D8FC1F
:1029B0007ED02999084602F0A3FD06902899084682
:1029C00002F09EFD04902699084602F099FD0390BE
:1029D000049902F08FFB0590069902F08BFB07909B
:1029E000FFF794FD22902299269802F089FD269007
:1029F0002299289802F084FD28902299299802F0C3
:102A00007FFD29902C99084602F07AFD06902B99BB
:102A1000084602F075FD04902A99084602F070FD00
:102A20000390049902F066FB0590069902F062FBA0
:102A30000790FFF76BFD229022992A9802F060FD23
:102A40002A9022992B9802F05BFD2B9022992C98CA
:102A500002F056FD2C90BD480168006802F050FD60
:102A60002190BB480168B948006802F049FD2090F8
:102A7000B8480168B548006802F042FD1F90B248AE
:102A80000168B248006802F03BFD1E90B048016842
:102A9000006802F035FD1D90AE480168AC48006842
:102AA00002F02EFD1C90A8480168A948006800E0CB
:102AB000F0E102F025FD1B90A6480168006802F0D5
:102AC0001FFD1A90A0480168A248006802F018FD96
:102AD00019909D480168006802F012FD18901F9936
:102AE0001B9802F007FB04902C9902F009FD069058
:102AF0001E991C9802F094FE02902B9902F000FDA2
:102B000004904FF07C501A9902F08AFE01901899B7
:102B100002F086FE02902A9902F0F2FC03900499DA
:102B200002F0E8FA0590069902F0E4FA4FF08041CD
:102B3000079002F0E5FC17902099199802F070FEBA
:102B400004902C9902F0DCFC06904FF07C501D990B
:102B500002F066FE0190189902F062FE02902B9935
:102B600002F0CEFC04901E991C9802F0C3FA029069
:102B70002A9902F0C5FC0390049902F0BBFA059073
:102B8000069902F0B7FA4FF08041079002F0B8FCC6
:102B900016901699084602F0B3FC02901799084661
:102BA00002F0AEFC0190029902F0A4FA039002F048
:102BB00075FACDE9040101F081FECDE9060101F0CD
:102BC000B9FE15904FF07C501D9902F029FE03903C
:102BD0001A9902F025FE04902C9902F091FC0690BF
:102BE0002099199802F086FA02902B9902F088FC3D
:102BF00004901F991B9802F013FE02902A9902F08C
:102C00007FFC0390049902F075FA0590069902F092
:102C100071FA4FF08041079002F072FC14901F99F6
:102C20001B9802F0FDFD13901999209802F062FAAA
:102C300012904FF07C51219802F0F2FD0790189904
:102C400002F058FA11901F991B9802F0E9FD0590C7
:102C5000149902F055FC07904FF07C501A9902F03D
:102C6000DFFD0490189902F0DBFD0590159902F044
:102C700047FC0690079902F03DFA109019992098A8
:102C800002F038FA0590149902F03AFC07901E9968
:102C90001C9802F0C5FD0590159902F031FC0690D4
:102CA000079902F027FA0F904FF07C501D9902F01F
:102CB000B7FD04901A9902F0B3FD0590149902F043
:102CC0001FFC07901B991F9802F014FA05901599A4
:102CD00002F016FC0690079902F00CFA0E900F997C
:102CE0002C9802F00DFC05900E992B9802F008FC30
:102CF0000490059902F094FD07901299299802F02A
:102D0000FFFB05901199289802F0FAFB04900599B1
:102D100002F086FD0690079902F0ECF90D900E99ED
:102D20002A9802F0EDFB059010992C9802F0E8FB30
:102D30000490059902F074FD07901199269802F00D
:102D4000DFFB0590139907E03C00002030000020D5
:102D50003400002038000020299802F0D1FB0490B4
:102D6000059902F05DFD0690079902F0C3F90C90F9
:102D700010992B9802F0C4FB05900F992A9802F045
:102D8000BFFB0490059902F04BFD0790139928981A
:102D900002F0B6FB05901299269802F0B1FB049060
:102DA000059902F03DFD0690079902F0A3F90B90FA
:102DB0000021AD48006802F06FFC45D2AA480D9989
:102DC000006802F09DFBA949069002F099FB07906C
:102DD000A7480168079802F08DF9A5490860A24844
:102DE0000C99006802F08CFBA049069002F088FB69
:102DF0000790A0480168079802F07CF99D49086097
:102E000099480B99006802F07BFB9849069002F004
:102E100077FB079098480168079802F06BF996498C
:102E2000086093480168239802F064F92390914860
:102E30000168249802F05EF924908F480168259873
:102E400002F058F9259007E0002089490860894977
:102E5000086000218848016088480D99006802F0E8
:102E60004FFB0790239902F045F9239083480C9972
:102E7000006802F045FB0790249902F03BF924908A
:102E80007E480B99006802F03BFB0790259902F001
:102E900031F925907A49239802F032FB2390784942
:102EA000249802F02DFB24907549259802F028FB08
:102EB0002590744800680A90734800680990734828
:102EC0000068089072482599006802F019FB069086
:102ED0002499089802F014FB0490099880F00040AF
:102EE0000290239902F00CFB0390049902F098FCE5
:102EF0000590069902F094FC0790624801680798D3
:102F000002F0F8F85F49086061482499006802F00F
:102F1000F7FA06902599089802F0F2FA04900A99B7
:102F2000239802F0EDFA0390049902F0E3F805907B
:102F3000069902F075FC079053480168079802F063
:102F4000D9F85149086052480168239802F0D8FA2C
:102F500006902599099802F0D3FA049024990A98CA
:102F600002F0CEFA0390049902F05AFC05900699FB
:102F700002F0C0F8079045480168079802F0BAF8D7
:102F8000424908600899239802F0BAFA06902499F9
:102F9000099802F0B5FA049025990A9802F0B0FA5F
:102FA0000390049902F0A6F80590069902F038FC07
:102FB000079037480168079802F09CF83449086088
:102FC00008460168006802F09BFA06902F480168E5
:102FD000006802F095FA04902B480168006802F03E
:102FE0008FFA029027480168006802F089FA019080
:102FF000029902F07FF80390049902F07BF80590A3
:10300000069902F077F80790FFF780FA22901D48A2
:103010002299006802F074FA1A4908601A48229945
:10302000006802F06DFA1849086018482299006893
:1030300002F066FA1549086015482299006802F006
:103040005FFA1349086000BFA2E410B50D4C246874
:1030500004600D4C24680C600C4C246814600C4C0B
:1030600024681C6010BD00002C0000200AD7A33B80
:1030700040000020440000204800002028000020DC
:103080000AD7233B30000020340000203800002005
:103090003C00002010B500F0C1FE10BD10B5FEF7D9
:1030A00083FEFFF7AEF910BD70B50446002521463A
:1030B000FA4801F096F9F94801F088F9E0B1F748CB
:1030C0000079F649497900EB012085B2202D10D214
:1030D000F24880790106F148C07901EB0041EF48E0
:1030E000007A01EB0021ED48407A0144EC4840F8B9
:1030F0002510EA4801F072F970BD7047704710B5AD
:103100000024E84AD16FD2F88C0002F089FB044613
:10311000E449D1F89400E44902F0BEF904D8E1484A
:10312000A430FFF7EAF903E0DE48A430FFF7E9F93D
:10313000DE4A2146DB48A430FFF792F910BD10B5F6
:10314000D84A916FD2F8880002F06AFB0446D5494C
:10315000D1F89400D44902F09FF904D8D048AC3893
:10316000FFF7CBF903E0CE48AC38FFF7CAF9CF4AF6
:103170002146CB48AC38FFF773F910BD2DE9F84F65
:10318000C849B1F92A0002F05BF9C949009002F080
:10319000B7F9834601F082FF8046C64AC64B01F06C
:1031A000A3FC06460022134601F09CFD044601F0F4
:1031B000C1FB8246BB49D1F89400BB4902F06CF9CF
:1031C00004D8B7488038FFF798F903E0B44880384E
:1031D000FFF797F9B54A5146B1488038FFF740F9F3
:1031E000B048D0F82011B54802F08AF9AD49C1F8CD
:1031F0002001D1F82001B24902F04EFA03D2B049C1
:10320000A848C0F82011A749D1F82001AD4902F023
:1032100043F903D2AB49A348C0F82011BDE8F88FA9
:103220002DE9F05F00249F4AD2F82011A64AD06B06
:1032300002F066F980469B4AD2F8F410A24A906BDD
:1032400002F05EF98146974AD2F8C8109E4A506B48
:1032500002F056F98246934AD2F894109A4A106BBB
:1032600002F04EF98346514601F044FF07464946B5
:1032700001F040FF0646414601F03CFF054602F0E2
:10328000BFF88849A1F854010A46D2F820118E4AA5
:10329000D06902F035F98046824AD2F8F4108A4AA1
:1032A000906902F02DF981467E4AD2F8C810864A0C
:1032B000506902F025F982467A4AD2F89410824A7F
:1032C000106902F01DF98346514601F013FF0646CE
:1032D000494601F00FFF0746414601F00BFF054646
:1032E00002F08EF881B26F48A0F856110246D2F86B
:1032F0002011754AD06802F003F98046694AD2F875
:10330000F410714A906802F0FBF88146654AD2F8E1
:10331000C8106D4A506802F0F3F88246614AD2F84C
:103320009410694A106802F0EBF88346514601F0A8
:10333000E1FE0646494601F0DDFE0746414601F042
:10334000D9FE054602F05CF881B25648A0F8581143
:103350000246D2F820115C4AD06A02F0D1F88046C9
:10336000504AD2F8F410584A906A02F0C9F88146DF
:103370004C4AD2F8C810544A506A02F0C1F882464A
:10338000484AD2F89410504A106A02F0B9F88346BD
:10339000514601F0AFFE0646494601F0ABFE074636
:1033A000414601F0A7FE054602F02AF881B23D48E9
:1033B000A0F85A1100BF1AE03948283830F8140034
:1033C00040F24C41884205DA4FF47A71344828388B
:1033D00020F814103248283830F8140040F26C718C
:1033E000884203DD2E48283820F81410641C062C6F
:1033F000E2D3BDE8F09F10B52A49D1F894003349D3
:1034000002F04AF91BD82748B0F85401A0F57A70A9
:103410004FF0804188862348B0F85601A0F57A70B5
:1034200008872048B0F85801A0F57A7088871D48B1
:10343000B0F85A01A0F57A702549088007E000200D
:103440004FF080418886088788872149088010BD11
:10345000002070471CB51F481F49204B204ACDE96A
:10346000001020490F48A430FEF7EEFF19481A4912
:103470001D4B1E4ACDE900101D490948AC38FEF726
:10348000E3FF1448144900234FF08142CDE90010B6
:10349000114603488038FEF7D7FF1CBD68020020A4
:1034A000E40100206800002000C08F440AD7A33B3D
:1034B0008DC1793D9A9999999999B93F000080BF3A
:1034C00000004843000048C3EC59000800808944CC
:1034D0004000004000401C4500401CC56666E63FB9
:1034E000CDCC8C406666F640CDCC8C3F9A99894015
:1034F0009A99E94010B5FD4AFD49FE4800F0A2FA4C
:10350000FA4AFB49FB480C3000F09CFAF74AF849AC
:10351000F848183000F096FA10BD10B5F548243878
:10352000FEF74AFEF3481E38FEF78BFE10BD10B5BD
:10353000F0484438C16A443000F0A2FAED484438FB
:10354000016B503000F09CFAEA484438416B5C3023
:1035500000F096FA10BD704710B586B00021E5481E
:103560004438406ECDE901010391E24844380491AA
:10357000806DE04C443C0090E36C226CE16BA06BEE
:10358000FFF7EDF904F174031A1F111F081FFFF76D
:103590005CFD06B010BD10B50446D749204601F0C9
:1035A000AFFF10BD10B5044600BF24F00040C0F1CD
:1035B000FF40C00F08B1002010BD4FF07E512046E3
:1035C00002F06AF801D8CD48F6E7CD49204601F06F
:1035D00063FF01D8CB48EFE7204600F0AFFFEBE7F1
:1035E0002DE9FE4FC3484438846EC56E066F406FA8
:1035F00002903146304601F083FF2946019028466B
:1036000001F07EFF0090019901F074FD83464FF0B8
:10361000804101F075FF82464FF07E5102F06DF857
:1036200080463046029901F06BFF834629462046CA
:1036300001F066FF5946019001F05CFD82464FF0B3
:10364000804101F05DFF8146414601F009F80746DF
:10365000FFF7A1FFA7494439C8672846029901F03E
:103660004FFF82463146204601F04AFF83465146CD
:1036700002F0D6F807464FF0804101F041FF814645
:10368000FFF790FF8046FFF786FF9A494439886725
:103690002946284601F034FF21460190204601F0DA
:1036A0002FFF0090019901F025FD83464FF08041E6
:1036B00001F026FF82464FF07E5102F0B1F88046BD
:1036C0002046029901F01CFF83463146284601F04E
:1036D00017FF5946019002F0A3F882464FF080414F
:1036E00001F00EFF8146414600F0BAFF0746FFF7A2
:1036F00052FF80494439C1F88000BDE8FE8F10B503
:103700007C49243901F10C00FEF7E0FD79491E39AE
:1037100001F11200FEF74BFE10BD2DE9F041044609
:103720000D460027002600BF04E0A05D3844C7B264
:10373000701CC6B2681EB042F7DC205CB84201D0F3
:10374000BDE8F0812078AA2802D16078AF2800D0A7
:10375000F6E7A078032840D12079000200B2617911
:10376000084364494439C860A079000200B2E17995
:103770000843604944398860207A000200B2617AC7
:1037800008435C4944390860A07A000200B2E17A3B
:1037900008435849443948600968A1F2DC5001F0F7
:1037A0004FFE8046584901F0ABFE52494439C1F8FA
:1037B0008C004968A1F2DC5001F042FE804652497B
:1037C00001F09EFE4B494439C1F88800C86801F0F9
:1037D00037FE48494439C1F8940000BFB0E7FFF70D
:1037E00059FC00F0F4FBFFF785FEFFF757FCFFF7ED
:1037F00031FE00F08FFCF5E04448008805283CDBF2
:10380000002042490880FFF788FEFFF778FFFFF7A6
:103810008EFEFFF7A1FEFFF7E3FEFFF770FCFFF758
:103820008EFCFFF7ABFCFFF7FBFCFFF7E4FD00BFEE
:1038300040213748FEF75EFA0028F9D02D49443977
:10384000C86F01F0C1FD40B284B221463048FEF796
:10385000E3F93048006864280ADB00212548443831
:10386000C0F88C11002023494439C1F8940004E0C9
:1038700028480068401C274908601E49443991F8CF
:10388000801148B201F0DCFD1A494439C1F88C00BE
:1038900091F8841148B201F0D3FD16494439C1F8BA
:1038A00088000020C1F89000D1F88C1101EB810153
:1038B000490001F57A7001F0C3FD0E494439C1F8A1
:1038C00094000846D0F8A40178B1D1F8A40101F021
:1038D000CFFD0446054901F081FC06494439C1F891
:1038E000A40000210348443816E017E000002041FE
:1038F0000AD7A33BAC000020E12E6542DB0FC93F95
:10390000000080BFDB0FC9BFCDCC4C3D560000206E
:10391000003801404C000020C0F8A4113248D0F813
:10392000A80178B13049D1F8A80101F0A1FD044601
:103930002E4901F053FC2C49C1F8A80000212A4867
:10394000C0F8A8112848D0F8AC0178B12649D1F8C0
:10395000AC0101F08DFD0446244901F03FFC2249F1
:10396000C1F8AC0000212048C0F8AC111E48D0F8C6
:10397000B00178B11C49D1F8B00101F079FD0446DD
:103980001A4901F02BFC1849C1F8D0000021164853
:10399000C0F8B0111448D0F8B40178B11249D1F888
:1039A000B40101F065FD0446104901F017FC0E4911
:1039B000C1F8D40000210C48C0F8B4110A48D0F86E
:1039C000B80178B10849D1F8B80101F051FD0446B9
:1039D000064901F003FC0449C1F8D800002102485F
:1039E000C0F8B81108E7000068000020000020417E
:1039F000704700BFFEE700BFFEE700BFFEE700BF65
:103A0000FEE770477047704710B500F031FA10BDFF
:103A100010B540F225510948FEF782F968B100203F
:103A20000749086040F225510448FEF7A3F903490D
:103A3000091D0988C8B2FFF737FB10BD00380140E7
:103A40004C0000202DE9F04704460D46164631464D
:103A5000194801F055FD814649464FF07E5001F06E
:103A6000BDFB8046294601F045FB074639462846FE
:103A700001F0B4FB206000206060A060BDE8F0872A
:103A80002DE9F04104460D462846216801F038FD35
:103A900007464FF07E50216801F0C2FE8046616803
:103AA00001F02EFD0646394601F024FBA060A06817
:103AB0006060A068BDE8F081DB0FC94010B500F080
:103AC00001FA002000F040FA012000F04CFA10BD8D
:103AD00070B5064600240025002000F053FA00BF10
:103AE0001BE0C4F1070101208840304018B10120DB
:103AF00000F057FA02E0002000F053FA012000F035
:103B000041FA6806050E00F05BFA08B145F00105C0
:103B1000002000F037FA601CC4B2082CE1DB284614
:103B200070BD70B505460C46002000F01CFA284612
:103B3000FFF7CEFF2046FFF7CBFF012000F013FA7E
:103B400070BD10B50446002000F0FEF901212120CF
:103B5000FFF7E7FF01212220FFF7E3FF1A212420CE
:103B6000FFF7DFFF21462520FFF7DBFF0F2126208F
:103B7000FFF7D7FF0C212020FFF7D3FF01213C20C6
:103B8000FFF7CFFF06213D20FFF7CBFFFF21E1200C
:103B9000FFF7C7FFFF21E220FFF7C3FF70212720B7
:103BA000FFF7BFFF0E212020FFF7BBFF012000F031
:103BB000CBF910BD70B505460E46002404E0285D23
:103BC000FFF786FF601CC4B2B442F8DB70BD70B56D
:103BD00006460C461546002000F0C5F93046FFF7B2
:103BE00077FF29462046FFF7E5FF012000F0BBF9EB
:103BF00070BD10B50446052221462A20FFF7E7FFD5
:103C000010BD85480078704710B50446052221464E
:103C10003020FFF7DCFF10BD2DE9F04105460E46D0
:103C20001746002405E0285DFFF752FF3055601C61
:103C3000C4B2BC42F7DBBDE8F08170B505460C4666
:103C40001646002000F08FF92846FFF741FF324664
:103C500021462046FFF7E0FF012000F084F970BD07
:103C600008B5012269461720FFF7E7FF9DF800001D
:103C700000F0010008BD08B5012269460720FFF7E2
:103C8000DCFF9DF8000008BD10B5FFF7F4FF044607
:103C900004F0400008B1012010BDFFF7E1FF08B9B2
:103CA0000120F9E70020F7E710B5002000F05BF9EC
:103CB0006020FFF70DFF0020FFF70AFF04460120F8
:103CC00000F051F9204610BD70B504460D460020A5
:103CD00000F049F96120FFF7FBFE2A462146204605
:103CE000FFF79AFF012000F03EF970BD08B50122F0
:103CF00069460820FFF7A1FF9DF8000000F00F00C3
:103D000000909DF8000008BD704770B504460D4650
:103D1000002000F019F9FFF7F7FF002000F023F969
:103D2000E120FFF7D5FE012000F01DF9002000F092
:103D30001AF9A020FFF7CCFE29462046FFF73AFFEC
:103D4000012000F010F9012000F0FEF870BD10B560
:103D5000FFF791FF044604F0300008B1002010BDC9
:103D60000120FCE710B5FFF786FF044604F02000B1
:103D700008B1002010BD04F0100008B10120F9E7DF
:103D8000FF20F7E710B5002000F0EDF8E220FFF784
:103D90009FFE012000F0E7F8002000F0E4F8E120A9
:103DA000FFF796FE012000F0DEF8002000F0CCF8CE
:103DB0000E210020FFF7B5FE012000F0C5F810BD70
:103DC00010B5002000F0C0F80C210020FFF7A9FE7C
:103DD00010BD014601F040007047014601F010009F
:103DE0007047014601F001007047014601F02000D4
:103DF000704701B5012269462720FFF7E8FE08BD9C
:103E000010B5FF21E120FFF78CFE10BD10B5FF219A
:103E1000E220FFF786FE10BD5000002030B521489B
:103E200000684FF47A72B0FBF2F1B1F1807F00D3F9
:103E30001DE021F07F40401E4FF0E02250615017FE
:103E40000F22002807DA13071D0E174B00F00F048E
:103E5000241F1D5503E013071C0E144B1C5400BFF8
:103E600000204FF0E02290610720106100BF30BDBC
:103E70000F480088401C0E4908800E480088401CEE
:103E80000C4908800C480088401C0B4908800B48EE
:103E90000088401C0949088009480088401C0849DE
:103EA000088070470000002018ED00E000E400E00A
:103EB000520000205400002056000020580000202E
:103EC0005A00002008B501210820FCF7F7FD012168
:103ED0000420FCF7F3FD4FF48040ADF80000012012
:103EE0008DF8020048208DF8030069468448FCF7ED
:103EF00029FB4FF42040ADF8000001208DF80200AE
:103F000010208DF8030069467D48FCF71BFB4FF439
:103F10008070ADF8000001208DF8020010208DF8AF
:103F2000030069467748FCF70DFB4FF48050ADF86D
:103F3000000001208DF8020010208DF80300694672
:103F40006F48FCF7FFFA08BD10B504462CB14FF4DA
:103F500080716C48FCF7A3FB04E04FF48071694862
:103F6000FCF79FFB10BD10B504462CB14FF48051F7
:103F70006348FCF794FB04E04FF480516048FCF781
:103F800090FB10BD10B504462CB14FF400515C48B5
:103F9000FCF785FB04E04FF400515948FCF781FB26
:103FA00010BD10B504462CB14FF400415448FCF745
:103FB00076FB04E04FF400415148FCF772FB10BD62
:103FC00010B54FF480414E48FCF74FFB10BD10B5C3
:103FD00000F076F910BD70B504460D460020FFF7DD
:103FE000B3FF052248492A20FFF7F1FD2A46214662
:103FF000A020FFF7ECFD0120FFF7A6FF70BD70B514
:10400000002400260025AA222146641C3F48425471
:104010002146641C425401222146641C4254002261
:104020002146641C42542146641C42542146641CAF
:1040300042542146641C42542046611CCCB2334990
:104040000A542046611CCCB230490A542046611CF7
:10405000CCB22E490A542046611CCCB22B490A54DA
:104060002046611CCCB229490A542046611CCCB2BE
:1040700026490A542046611CCCB224490A54201F08
:10408000C87000BF05E02148405D3044C6B2681CDE
:10409000C5B2A542F7DB2046611CCCB21B490E54C9
:1040A00021461A48FFF797FF70BD70B50025002420
:1040B000FFF7E1FD05462846FFF78BFE78B1FFF7D5
:1040C000F3FD0446202C08DC21461148FFF7FCFDD7
:1040D00021460F48FFF721FB01E0FFF797FE284636
:1040E000FFF783FE2846FFF778FE28B12846FFF742
:1040F00078FE08B1FFF784FE2846FFF77AFE70BD10
:10410000000C0140000801405C0000207303002007
:104110007402002010B588B0002401210C20FCF7A7
:10412000CDFC0F20ADF8000003208DF80200182010
:104130008DF8030069465248FCF704FA0320ADF8F5
:10414000000069464F48FCF7FDF901210846FCF7DD
:10415000C2FC4D4800684D49B0FBF1F0401E84B2EE
:1041600040F2E730ADF81800ADF814400020ADF88B
:104170001A00ADF8160005A94FF08040FCF7D6FDF7
:104180006020ADF804000120ADF806000020ADF875
:104190000A00ADF80C0001A94FF08040FCF703FEC7
:1041A0000821C806FDF74EFA01A94FF08040FCF740
:1041B0003CFE0821C806FDF74EFA01A94FF08040E9
:1041C000FCF780FE0821C806FDF752FA01A94FF05E
:1041D0008040FCF7C2FE0821C806FDF752FA012113
:1041E0008807FDF7FFF901218807FDF7FBF801219A
:1041F0000220FCF770FC244800682449B0FBF1F071
:10420000401E84B240F2E730ADF81800ADF814401B
:104210000020ADF81A00ADF8160005A91C48FCF7FF
:1042200085FD6020ADF804000120ADF806000020F7
:10423000ADF80A00ADF80C0001A91548FCF742FEE4
:1042400008211348FDF714FA01A91148FCF785FE6F
:1042500008210F48FDF715FA01210D48FDF7C2F9B5
:1042600001210B48FDF7BEF808B010BD10B54FF0A6
:104270008044A0862187A287064C238010BD0000C1
:1042800000080140000C01400000002000366E01D3
:10429000000400404000004008B54FF4C060FCF747
:1042A00083F825208DF8000000208DF80100012002
:1042B0008DF802008DF803006846FCF77AF808BD17
:1042C00000B589B0012144F20500FCF7F7FB4FF47B
:1042D0000070ADF8080003208DF80A0018208DF852
:1042E0000B0002A93748FCF72DF94FF48060ADF8B8
:1042F000080003208DF80A0004208DF80B0002A9A5
:104300003048FCF71FF94FF4E13005900020ADF87C
:104310001800ADF81A00ADF81C00ADF820000C2014
:10432000ADF81E0005A92848FDF77DFB0020ADF87B
:104330000C00ADF80E004FF40070ADF81000002036
:10434000ADF8120003A92048FDF7E2FB012240F27C
:1043500025511D48FDF7FFFB01211B48FDF7EFFB31
:1043600025208DF8040000208DF805008DF806004A
:1043700001208DF8070001A8FCF71BF809B000BD6B
:104380002DE9F04107460D46164600240CE000BF1B
:1043900040213846FDF7AEFC0028F9D0295D3846AB
:1043A000FDF73AFC601C84B2B442F0DBBDE8F0815A
:1043B00070B504460D462A4621460348FFF7E0FF44
:1043C00070BD000000080140003801400146086847
:1043D0000A2801D1012070470020FCE7002101607C
:1043E000704702680B2A39D2DFE802F0060B131778
:1043F0001B1F23272B2F3700502901D101220260D8
:104400002FE0582902D10222026001E0002202605E
:1044100027E041710322026023E00171042202605F
:104420001FE08171052202601BE0C171062202605B
:1044300017E001720722026013E041720822026055
:104440000FE08172092202600BE0452902D10A22A5
:10445000026001E00022026003E002E0002202604C
:1044600000BF00BF704770477047704710B500F03D
:1044700009F8006810BD10B5044600F003F80460A8
:1044800010BD0000004870479403002000487047AA
:10449000940300207546FFF7F9FFAE460500694614
:1044A000534620F00700854618B020B5FBF76AFF99
:1044B000BDE820404FF000064FF000074FF0000825
:1044C0004FF0000B21F00701AC46ACE8C009ACE8A6
:1044D000C009ACE8C009ACE8C0098D467047044685
:1044E000AFF300802046FBF748FE0000014918208A
:1044F000ABBEFEE72600020070474100080218BF6D
:1045000004200A0E18BF40F001004FF07F4232EA4B
:10451000010108BF40F00200012808BF05207047D4
:10452000012101F024BA00F0E5BD0021084600F0A9
:1045300055BE6FF05E01080701F019BA2DE9F04190
:1045400004464FF00E4000EB4400B0F1506F20469F
:1045500055D84FF0FC41B1EB440F1CD224F0004081
:104560004FF07E5101F0C9F84FF0FF3101F0FFF933
:10457000054600F0C9F914F0004F1DBF2F4F304E13
:1045800080F000402F4F08BF2F4E4FF0404100F009
:10459000B7FF044605E000273E46014600F0B0FFA5
:1045A00005462A49284600F0ABFF294900F0A2FD44
:1045B000294600F0A5FF274900F09CFD294600F0A0
:1045C0009FFF254900F096FD294600F099FF2349F9
:1045D00000F090FD80462946204600F091FF4146BC
:1045E00000F08EFF05463146204600F083FD294647
:1045F00000F080FD3946BDE8F04100F07BBD4FF092
:10460000E441B1EB440F08D9FFF777FF042808BF56
:10461000FFF78FFF2046BDE8F0814FF07F41B1EBFF
:10462000440F03D2BDE8F041FFF77ABF0120FFF746
:1046300022FFBDE8F041FFF778BF00000000C9BFCE
:1046400022AAFDB90000C93F22AAFD3924FE1C3D63
:10465000C78AD83C1E67383D1B93993DAFAA2A3EB6
:104660002DE9F0474FF0684202EB40030C46054647
:10467000B3F1654F3CBF02EB4102B2F1654F7CD212
:10468000C0F3C753C1F3C7529A1A1B2A06DD10F0B4
:10469000004F14BF76487748BDE8F08712F11A0F33
:1046A00017DA11F0004F06D010F0004F0CBF72481F
:1046B0007248BDE8F0872146284600F08FFD044689
:1046C000FFF71BFF042808BFFFF733FF2046BDE8B4
:1046D000F0874200B2EB410F25D910F0004F19BF0F
:1046E000674F684E684F694E224685F00044154674
:1046F0000A4680F0004110460A1A5200B2F1807F4B
:1047000040D248406249DFF88CA110F0004F18D029
:104710004FF03F48384601F083F80746514630468F
:1047200001F07EF817E011F0004F04BF0026374675
:10473000E2D010F0004F19BF574F584E584F594E06
:10474000DAE74FF07C58384600F0D4FC0746514673
:10475000304600F0CFFC06464146284600F0D0FE29
:10476000214600F0C7FC82462146404600F0C8FEC4
:10477000294600F0C2FF514600E037E000F02EFD70
:10478000044604E02146284600F028FD0446014680
:1047900000F0B6FE8046444900F0B2FE434900F006
:1047A000A9FC414600F0ACFE414900F0A3FC4146A3
:1047B00000F0A6FE3F4900F09DFC414600F0A0FE3F
:1047C0003D4900F097FC05464146204600F098FE22
:1047D000294600F095FE314600F08CFC214600F0A1
:1047E00089FC3946BDE8F04700F084BC4FF07F42B9
:1047F000B2EB400F28BFB2EB410F03D2BDE8F04748
:10480000FFF791BE40EA01035B0008BF44F0FF419F
:104810000AD0B2EB400F08BFB2EB410F06D125F032
:10482000804024F0804105460C4629E7B2EB400F5A
:1048300012BF5FEA410245F0FF4004F000413FF43F
:104840001FAF4A0092EA40033FF51AAF002AACBFFF
:104850004FF09F464FF03E56314600F051FE054660
:104860003146204600F04CFE04462846214607E724
:10487000DB0FC9BFDB0FC93FDB0F4940DB0F49C06E
:104880000000C9BF22AAFDB90000C93F22AAFD3914
:104890000060ED3EC30ACE37000049C022AA7DBAAF
:1048A0000000494022AA7D3A2DAD65BD8FB8D53DA7
:1048B0000FB511BE61C84C3EA8AAAABE2DE9F041B1
:1048C00006460F4600F01AFA04000D4618BF0120F4
:1048D000284320F00040C0F17F6000F1E040C00FAD
:1048E0000ED0301C18BF0120384320F00040C0F12A
:1048F0007F6000F1E040C00F04BF0120FFF7BBFD67
:1049000020462946BDE8F08170B5054600F000FF5D
:10491000044620F00040C0F1FF40C00F08D025F051
:104920000040C0F1FF40C00F04BF0120FFF7A3FD0E
:10493000204670BD21F00042A2F16052B2F5801F06
:1049400001F0004328BFD2F17F6C0BD95FEA001C55
:1049500043EAC20242EB507018BF704728BF20F0F4
:1049600001007047B2F5801FBCBF184670474FEA80
:10497000410C1CF5001F02D2084600F088BE70B53D
:1049800000F05CF900000089FFF7F6BF4FF000402F
:10499000A0F580007047000010B591EA030F48BFF2
:1049A00083F0004300F19882841A71EB030C05D266
:1049B000121943EB0C03001B61EB0C01DFF824E13F
:1049C0004FEA1154A4EB135C1EEA430F18BF9EEA92
:1049D000445F73D023EA0E03DCF1200E21EA045178
:1049E00043F4801332D322FA0CFE10EB0E0023FAAC
:1049F0000CFE41EB0E01CCF1200E03FA0EFE10EB83
:104A00000E0051F10001B1F5801FCCF1200E32D221
:104A100001EB045112FA0EF2BDE8104058BF704786
:104A2000401C38BF5FEA420218BF7047002814BF1D
:104A300020F0010041F100014FEA410313F5001F8E
:104A400038BF7047A1F1C04100F046B9012A43EBDD
:104A50000302ACF1200CDCF11F0E32BF4FF0000E50
:104A600023FA0CF310EB030041EB0451B4EB115F9C
:104A7000D0D0A1EB045101F5801149085FEA300064
:104A800001EB04510ED350F1000038BF12FA0EFEB4
:104A900008D1BDE81040C9E7401C38BF5FEA4202B8
:104AA000CAD1C3E7BDE810404FEA410313F5001F28
:104AB00038BF7047A1F1C04100F00EB99EEA445FD3
:104AC00008D011EA5E0FBDE8104004BF01F00041BC
:104AD00000207047BDE8104070B500F0AFF800BF8F
:104AE00064FBBE3E0000E0FFDFF848C170B51CEA81
:104AF000111E1EBF1CEA13159EEA0C0F95EA0C0F3F
:104B000000F06F8081EA030423EA4C134EEAD47E5E
:104B100021EA4C1141F4801143F48013AE44A1FB0F
:104B2000024CA0FB0365AEF17F7E361955EB0C05F8
:104B3000A1FB034C4CF10003A0FB021C16EB0C067E
:104B4000654153F10003094218BF46F0010613F412
:104B5000007F0BD14FEA03314FEA0530340341EABD
:104B6000155140EA16506FF003020AE04FEAC321E4
:104B70004FEAC520F40241EA555140EA56506FF021
:104B8000020202EB2E4201EB025585EACE710AD0F9
:104B90005FEA440C18BF24F0004450F1000041F1DA
:104BA000000120EAD47040F2FE7C624500D270BD64
:104BB000A84214BF4FF080444FF04044002E08BF7D
:104BC0000024BEF1806FA8BFA1F1C041BDE87040D4
:104BD00080F282804FF0000001F1C04101F00041FD
:104BE00070479EEA0C0F0CEA131518BF95EA0C0FDC
:104BF00006D04FF0000081EA030E0EF0004170BDB8
:104C000000F01CF88900013E00F007B800F009B878
:104C10004FEA430C5FEA5C5C08D081EA030100F0D4
:104C20005BB84FEA410C5FEA5C5CF6D14FF00000E4
:104C3000014970470000FF070000F87F0EF1020EE7
:104C40002EF0030E5EF8046B364205D4012A43EBC6
:104C5000030515F5001F12D8012841EB010C1CF5C6
:104C6000001F0CD80ED14FEAD17C15F5001F0CEBBC
:104C70004C0C0CF1020C08BF4CEBD37C04E04FF061
:104C8000080C01E04FEAD37C0CEB4C0526FA05F644
:104C900006F00706B6F1040C06D20EEB860CBDE852
:104CA00070404CF0010C6047DFE80CF0090B020289
:104CB0004FF000414FF00000A1F5002170BD1946F2
:104CC0001046012851EB010418BFD4F5001484BF2D
:104CD000002001F0004170BD0808A0F500114FEA66
:104CE0003101704791EA030F10B581F000413FF5A3
:104CF0005BAE83F0004300F0EFB800002DE9F04117
:104D000001F5801CBCF5001FC0F2C3804FEA115CA6
:104D100021EA0C510CF1FD0C41F480115FEA5C0CAE
:104D20000CF5C07C01D3400049413DA4890241EA11
:104D3000905187028E0E0A0CA45D04FB04F602FB60
:104D400006F6C6F14046A4FB0662F60D46EA422688
:104D500006FB06F4A4FB01235242C3F1404338BFD3
:104D60005B1EA6FB02420024E6FB0324D20B42EAB0
:104D70004446A6FB0623A1FB02E2A3FB07E4A4181A
:104D80004FF0000252F10002E3FB01426442C2F123
:104D9000404E38BFAEF1010EA6FB04234FF00002D7
:104DA000E6FB0E32A2FB03464FF00004B61954F1A5
:104DB0000004E2FB0264A1FB06E6A4FB07E816EB95
:104DC00008064FF0000858F10008E4FB016876423D
:104DD000C8F1405838BFA8F10108A2FB06E4A3FBC4
:104DE00008E52D194FF0000454F10004E2FB0854CB
:104DF000A1FB05E6A7FB04E818EB06084FF0000648
:104E000056F10006E1FB048618F1200556F1000674
:104E1000A809A8F11B08B10908F03F08B8F10A0F6A
:104E200040EA86601CD901EB0C51BDE8F08100BF5F
:104E3000FCF5EEE8E2DDD8D3CFCBC7C3C0BDB9B631
:104E4000B4B1AEACA9A7A5A3A19F9D9B9A98969536
:104E50009392908F8D8C8B898887868584838281BD
:104E6000A0FB006800FB01F208EB4208B8EB8728C2
:104E700007D5341858EB0104D5D5401C51F1000179
:104E8000D1E7341A78EB0104CDD4401E71F1000152
:104E9000C9E75FEA4C0C5FEA9C5C0DD105D34FF08B
:104EA000000001F00041BDE8F081BDE8F04170B5BF
:104EB000FFF7C4FE6DDBFFBEBDE8F0414FF0000020
:104EC000004970470000F87F10B591EA030F48BF12
:104ED00083F000433FF568AD841A71EB030C07D2F1
:104EE00012198CF0004C43EB0C03001B61EB0C011E
:104EF000DFF8A4E14FEA1154A4EB135C1EEA430F60
:104F000018BF9EEA445F00F0B08023EA6E0352426D
:104F100021EA0451C3EB6E0338BF5B1EDCF1200EA7
:104F200025D322FA0CFE10EB0E0043FA0CFE41EBE7
:104F30000E01CCF1200E03FA0EFE10EB0E0051F123
:104F40000001CCF1200E29D412FA0EF201EB04512B
:104F5000BDE8104058BF7047401C1CBFB2F1004F65
:104F6000704700280CBF491C20F00100704712EB6D
:104F7000020E43EB030218BF4FF0010E4EEA42024D
:104F8000ACF1200CDCF11E0E54D943FA0CFE10EBF0
:104F90000E0051F1FF31CCF11E0ED5D50EF1010EF0
:104FA00012FA0EFE404141EB010101EB445C5FEA65
:104FB0005C5C10D910EBDE7001EB045138BFBEF120
:104FC000004FBDE8104018BF704700280CBF491CB7
:104FD00020F00100704730D24FEAD42C11F50011B7
:104FE00024F400641BD0B1FA81F20B3AA41AA41E77
:104FF000D2F12003914030FA03F31943904001EBC2
:10500000CC71002C01EB0451BDE81040A8BF7047E3
:1050100001F1C0414FF0000001F000417047B0FACB
:1050200080F310FA03F100D110BDE41A173C4805D3
:10503000C90AE4E701EB045110BD491001EB04512A
:10504000BDE810404FEA300002E04FF00001704729
:105050004A0008BF0042F8D0B2F5001F28BF7047D1
:1050600001F000414FF0000070479EEA445F07D016
:1050700011EA5E0FBDE8104004BF00210020704718
:10508000BDE8104070B5FFF7D9FD00BF40DFF63E28
:1050900083F00041104670470000E0FF43004FEAF4
:1050A000D30C4FEA3C0C43401FBF40070CF160514A
:1050B00013F0FE4F70471CF0006F03D100200CF07E
:1050C000004170470CF0004343EA507010B540EACD
:1050D000CC0000F096FA00BF000000924FEA0001F9
:1050E000FFF7FABD4FF000414FF00000A1F500219D
:1050F0007047000090EA010F48BF81F0004100F1C5
:105100009683421A3CBF801A89184FEAD0524FF05A
:105110007F4C1CEA410FA2EBD15318BF9CEA026FEF
:1051200000F03B804FF0004C4CEA00204CEA01219B
:1051300021FA03FC10EB0C0C1ED202F1FF325FEAE5
:105140001C2040EBC25038BF70471CF07F0F4FEA65
:10515000400C18BFBCF17F4F38BF7047C3F120032C
:10516000994008BF20F00100BCF17F4F38BF704765
:10517000A0F1C04000F08BBA4FEA3C00000A40EBBF
:10518000C25028BF1CF0FF0F4FEA400CE6D018BFFA
:10519000BCF17F4F38BF7047EAE79CEA026F05D049
:1051A00010EA5C0F08BF00F00040704710B500F037
:1051B00028FA00BF64FBBE3E014800F0A6BB00BF5A
:1051C0000000C07F401058BFC0F14040491058BF98
:1051D000C1F140418142EFF3008070474FF47F0CF2
:1051E0001CEAD0121EBF1CEAD11392EA0C0F93EAFC
:1051F0000C0F00F0858090EA010F48BF42F48072E6
:1052000040F4000C41F400002CF07F4120F07F407E
:1052100000B58142A2EB03020FF2081CACEB504E2A
:10522000C0F100009EF800E04FEA4E0E00FB0EFCBD
:1052300038BF49004FEA2C1C02F5FA020CFB0EF3B2
:105240004FEACE1E4FEA112C4FEAC1210EEB635EEE
:1052500042EB22420EFB0CFC4FEA1C5300FB0311F5
:105260004FEA112C4FEA01310EFB0CFC4FEADC4CEB
:1052700000FB0C11C14228BF09184CEB03335DF849
:1052800004EB10EB410143EBC250B2F57C0F38BF89
:10529000704729D512F0F00F1CBF00F1C04000F09C
:1052A00000407047008182838485868788898B8C43
:1052B0008D8E8F919293959697999A9C9D9FA0A27F
:1052C000A3A5A7A8AAACAEB0B2B3B5B7B9BCBEC0CF
:1052D000C2C5C7C9CCCED1D4D7D9DCDFE2E6E9EC70
:1052E000F0F3F7FAFE0000004FEA400C0CF1807C6E
:1052F000BCF17E4F28BF7047B0F1C04000F0C7B985
:1053000090EA010F0CEAD11348BF42F48072624563
:1053100038BF634507D213F47F0F16D080EA01002F
:1053200000F00040704710B500F06BF9097EFC3EBC
:1053300000F005B880EA010000F00040704780EA04
:10534000010000F0004000F0A2B912F47F0F04BF8A
:105350000248704780EA010000F099B90000C07F60
:1053600050EA010C00F113801CF5000F58BFBCF58A
:10537000000F01D48842704707D710F5000F58BFBF
:1053800011F5000F15D488427047894270471CF50B
:10539000000F04D5BCF5000FF7D5814270474FF0E0
:1053A000807C1CEB400F38BF1CEB410F01D28142C7
:1053B000704710B500F025F9922449004FF00050D5
:1053C0004FF08051FFF7FEBE41000B0ED3F19E025D
:1053D00008D950F400034FEA032323FA02F048BF30
:1053E0004042704710B500F00CF900BF499224808C
:1053F000002070476FF0004282EA200070470000F2
:10540000C10DD1F19E0206DB4FEA002343F00043B9
:1054100023FA02F07047004207D54FEA4001B1F18C
:10542000FE4F02D24FF00000704710B500F0E9F8CF
:1054300049922480002070476FEA200070470000E6
:1054400010F0004148BF4042B0FA80F310FA03F276
:10545000C3F19D030BD051EAC35101EB1220530657
:1054600038BF704700F1010008BF20F0010070470D
:10547000B0FA80F310FA03F2C3F19D030AD0D90504
:1054800001EB1220530638BF704700F1010008BF3E
:1054900020F001007047000050EA010C00F1138079
:1054A0001CF5000F58BFBCF5000F01D488427047AF
:1054B00007D710F5000F58BF11F5000F15D488421B
:1054C0007047894270471CF5000F04D5BCF5000FEA
:1054D000F7D5814270474FF0807C1CEB400F38BFFE
:1054E0001CEB410F01D28142704710B500F089F8E2
:1054F000922449004FF000504FF08051FFF762BEF8
:105500004FF47F0C1CEAD0121EBF1CEAD11392EAA2
:105510000C0F93EA0C0F00F0478090EA010F48BF90
:1055200042F480724FF0004C4CEA00204CEA01211A
:1055300002EB0302A0FB0113A2F50002002918BF31
:1055400043F001035B0028BF4FEA330342EB2242E2
:105550005FEA132C4CEBC2502EBFBCEB436FB2F58D
:105560007C0F70474FEA036CBCF1004F08BF20F07E
:105570000100B2F57C0F38BF70470BD582F0FF02F7
:1055800012F5803FC8BF704700F1C040D8BF00F09F
:105590000040704700F5000C5FEA4C0C48BF7047B4
:1055A000B0F1C04000F073B890EA010F0CEAD113DB
:1055B00048BF42F48072624538BF634504D280EA36
:1055C000010000F00040704710B500F01AF800BF6D
:1055D0008900013E00F007B800F009B85FEA410C0D
:1055E0005FEA1C6C08D080EA010000F050B85FEA66
:1055F000400C5FEA1C6CF6D14FF00040A0F5800033
:1056000070470EF1020E2EF0030E5EF8044B24429A
:1056100004D44FEA4102B2F17F4F11D84FEA400360
:10562000B3F17F4F0CD80ED14FEAD07CB2F17F4F4F
:105630000CEB4C0C0CF1020C08BF4CEBD17C04E0E1
:105640004FF0080C01E04FEAD17C0CEB4C0324FA3C
:1056500003F404F00704B4F1040C06D20EEB840C3E
:10566000BDE810404CF0010C6047DFE80CF0070883
:1056700002024FF00040A0F5800010BD0846420035
:1056800018BFD2F1807288BF00F0004010BDFF212A
:1056900041EAD050C005704751EA000C00F1138078
:1056A0001CF5000F58BFBCF5000F01D481427047B4
:1056B00007D711F5000F58BF10F5000F15D4814220
:1056C0007047894270471CF5000F04D5BCF5000FE8
:1056D000F7D5884270474FF0807C1CEB410F38BFF4
:1056E0001CEB400F01D28842704780EA010081EA3A
:1056F000000180EA0100FFF7F8BE80F0004090EA68
:10570000010F7FF5FEAC81F0004100F090B8000081
:105710004FEAD051002988BFD1F1FF0240F27580D5
:1057200001F17D014FEA002070B5490840F00040CA
:1057300038BF40080EA2430E040CD25C02FB02F3F9
:1057400004FB03F3C3F14043A3FB0254ED0D45EA10
:10575000442202FB02F3A0FB03546D42C4F1404417
:1057600038BF641EA2FB05350023E2FB0453EA0B9D
:1057700042EA4342A0FB023212F14004A2F12103AB
:10578000E40903F07F031F2B32D904EBC15070BD35
:10579000FEFAF7F3F0ECE9E6E4E1DEDCD9D7D4D2A7
:1057A000D0CECCCAC8C6C4C2C1BFBDBCBAB9B7B6D8
:1057B000B4B3B2B0AFAEACABAAA9A8A7A6A4A3A23B
:1057C000A1A09F9E9E9D9C9B9A9998979796959431
:1057D0009393929190908F8E8E8D8C8C8B8A8A89E8
:1057E0008988878786868584848383828281818075
:1057F00004FB04F6B6EB004603D5E64248BF641C42
:10580000C3E7A64258BF641CBFE711F0FF0F02D1E7
:1058100000F00040704710B5FFF7F3FE7FDBFFBEDE
:1058200090EA010F48BF81F000413FF56AAC421A8F
:1058300004D882F00042A0EB020011444FEAD0529B
:105840004FF07F4C1CEA410FA2EBD15318BF9CEAEA
:10585000026F4AD04FF0004C4CEA00204CEA012184
:1058600021FA03FCB0EB0C0C0FD412F0FE0F36D073
:105870005FEA4C001DD5001240EBC25038BF7047A4
:105880001CF03F0F18BF70470BE0A2F101025FEA66
:105890001C2040EBC25038BF70471CF07F0F18BF70
:1058A0007047C3F12003994014BF401E20F001004F
:1058B000704780084FEA122308BF7047B0FA80FC97
:1058C000A2EB0C02CCF1280C60FA0CF093EA122F38
:1058D00004BF00EBC25070474FEAC3707047130A11
:1058E0005FEADC1008BF7047F6E79CEA026F04D05D
:1058F00010EA5C0F08BF0020704710B5FFF781FE6B
:1059000040DFF63E81F0004070470CF00F03092B9A
:1059100008BF082000F051800A2B0BD0082B18BFBD
:10592000704708BF1CF0400F0AD04FF000004FF046
:10593000000170471CF0400F18BF4FF00040704747
:105940001CF0100F08D020F0704300F07F4242EAB4
:10595000D3014FEA4370704700F0604021F07F426E
:1059600042EA000201F07F4040EA727070474FF057
:10597000FF0212EAD0521CBF92F0FF038B42C2BF5B
:10598000D14200EBC1507047002A0AD0002B0BD047
:10599000002900F00040A4BF40F0FE4040F40000A9
:1059A000704700F00040704743024FF00B0C18BFE7
:1059B0004CF0806C7FF400AC70471CF4801F11D059
:1059C0001CF4E02F03D06FEACC31490070474FF050
:1059D0004050EFF3008222F0704242EA000282F36C
:1059E000008870474FF00000704700000000803FC3
:1059F000000080BF0000803F000080BF0000803FAB
:105A0000000080BF000080BF0000803F0000803F9A
:105A10000000803F0000803F0000803F0000803F8A
:105A20000000803F000080BF000080BF4C5A00088B
:105A3000000000206800000028010008B45A000897
:105A400068000020900900004401000800A24A04F8
:105A5000000000000000000001020304060708091E
:105A60000000000001020304010203040607080904
:105A7000020406080000803F0000003F0000803F55
:105A80000000000000000000000000000000000016
:105A90000000000000000000000000000000000006
:105AA0000000000000000000AABBCC0001AABBCC93
:045AB00000010000F1
:040000050800036983
:00000001FF
